:1000000018C01FC0CCC0CCC01CC01BC01AC019C0B7
:1000100018C017C016C015C014C013C012C011C03C
:1000200010C000000000400C561D20230120386342
:100030002C3D11241FBECFE5D2E0DEBFCDBFB1D035
:100040004BC3DECFD59A0895009711F41FBC0895D5
:100050007BBD6ABD99BD88BD83E28FBD89E18EBD40
:10006000089581E287B986E886B989EF90E0019723
:10007000F1F700C00000369A3699FECF64B185B121
:10008000379870E0782B80E09CE26ED2862F08953E
:100090008F929F92AF92BF92CF92DF92EF92FF9298
:1000A0000F931F93CF93DF93EC016C01E12CF12CA4
:1000B0008B0120E030E048015901880C991CAA1CF2
:1000C000BB1C880C991CAA1CBB1CD501C401880F41
:1000D000991FAA1FBB1F880F991FAA1FBB1F880D3E
:1000E000991DAA1DBB1D800F911FA21FB31FBC012C
:1000F000CD01660F771F881F991F242F30E040E045
:1001000050E046D2CA01B901A701960165D2622F1B
:10011000732F842F952F2FEF3FEF40E050E038D220
:10012000C216D306E406F50618F0822F932F02C0FC
:100130008C2F9D2FBE0188DFDF91CF911F910F91F2
:10014000FF90EF90DF90CF90BF90AF909F908F90F7
:10015000089512BE83E080BF81E083BF16BE1CBE3F
:100160000895811105C0C29880B78F7380BF08952C
:1001700082958F70809586BF80B7806C80BF089510
:10018000811105C0DF9880B78F7C80BF089582956C
:100190008F7080958CBF80B7806380BF089518955D
:1001A000189550DFC4B784B7877F84BF99E288E190
:1001B0000FB6F894A89581BD0FBE91BDCADFBA9A5B
:1001C000D79AC09AD89AD99A0000C3FD95C1B09B1E
:1001D00029C0C4E6D3E68FEFD3DFB099BAC10AC015
:1001E000E9EFF0E03197F1F700C00000815011F025
:1001F000B099F6CF80E0C4DF8FEFB3DFB099A1C133
:100200000AC0E9EFF0E03197F1F700C0000081503B
:1002100011F0B099F6CF80E0A4DFA895C15011F09D
:10022000B099D9CF89E698E10197F1F700C00000B5
:1002300063C1CBE0D0E019E080E093DFB09B79C1EF
:100240000AC0E3ECF9E03197F1F700C000008150FB
:1002500011F0B09BF6CF84E684DFB09B62C10AC088
:10026000E3ECF9E03197F1F700C00000815011F0A4
:10027000B09BF6CFA895219711F0B09BDDCF80E021
:1002800070DF89E698E10197F1F700C00000B099AE
:1002900024C08FEF75DF8FEF64DFE7EAF1E6319777
:1002A000F1F700C0000080E06BDF80E05ADF87EAF2
:1002B00091E60197F1F700C000008FEF61DF8FEF4B
:1002C00050DFE7EAF1E63197F1F700C0000080E087
:1002D00057DF80E046DFC09802C081E080BD83E048
:1002E00082BB8BB780638BBF80E38ABFC99B1BC077
:1002F000C89B19C085B7877E806185BF81B588613D
:1003000081BD11BC85B7806285BF7894889585B71B
:100310008F7D85BFF89499E288E10FB6F894A8958F
:1003200081BD0FBE91BDC89B19C0C99B2FC0C0E045
:10033000FF24F39410E00F2EF4EF9F2EF02DEE2407
:10034000E3940F2EF6E2AF2EF0E0BF2EF02D0F2E2D
:10035000F8E2CF2EF0E0DF2EF02D43C01FBC8FEF70
:1003600000DF87EA91E60197F1F700C00000C89B23
:10037000FECF80E0F6DE99E088E10FB6F894A8950C
:1003800081BD0FBE91BDFFCFC9992BC01FBCE7EA4D
:10039000F1E63197F1F700C00000C99917C0D1E02C
:1003A000C0E00FEF11E08C2FDCDECF3F21F0C11158
:1003B00003C0D12F01C0D02FCD0F89EF90E001975E
:1003C000F1F700C00000A895C99BEDCF80E0C9DE21
:1003D00099E088E10FB6F894A89581BD0FBE91BD54
:1003E000FFCF3FDE082F8F3100F5CC2319F08D3180
:1003F00008F090C01FBC80E0B4DE8FEFC1DE9FE349
:10040000EDE0F3E09150E040F040E1F700C0000083
:10041000B09BFECF80E0B4DE99E088E10FB6F8949F
:10042000A89581BD0FBE91BDFFCFB09934C084E6C1
:1004300098DE89E698E10197F1F700C00000C1114C
:100440006DC0F50165917491F60185919491402FED
:100450001FDEB09B10C085C02150310971F41FBC54
:1004600080E07FDE99E088E10FB6F894A89581BD21
:100470000FBE91BDFFCF292D3E2DE9EFF0E0319762
:10048000F1F700C00000B09BE7CFCF5FC43028F089
:10049000DF2DC12F03C0D12F01C0DF2D8C2F90E0A5
:1004A000880F991F880F991FFC01EE5DFF4F659122
:1004B00074918C5D9F4FFC0185919491402FE8DDF4
:1004C000DD2341F0812F4DDE89E698E10197F1F7B8
:1004D00000C00000C11109C099E088E10FB6F8948E
:1004E000A89581BD0FBE91BDFFCFA895C8994CCFEF
:1004F00035CFB09B9ECEC3CEB09BFBCFC8CE84E69B
:1005000030DEE9E6F8E13197F1F700C00000B09B7A
:10051000B2CFBBCFB09BF3CFD12FC0CFB09BABCF6F
:10052000B4CF83EC99E00197F1F700C00000812F70
:100530009FCEE3ECF9E03197F1F700C0000089E5C8
:1005400088CE89EF90E00197F1F700C000008D2F71
:1005500060CEE9EFF0E03197F1F700C000008D2F99
:1005600047CECF5FDF2D9ACFAA1BBB1B51E107C03F
:10057000AA1FBB1FA617B70710F0A61BB70B881F33
:10058000991F5A95A9F780959095BC01CD010895C2
:10059000A1E21A2EAA1BBB1BFD010DC0AA1FBB1F87
:1005A000EE1FFF1FA217B307E407F50720F0A21BF9
:1005B000B30BE40BF50B661F771F881F991F1A9466
:1005C00069F760957095809590959B01AC01BD0190
:1005D000CF01089568940013E894A0E0B0E0E2EF42
:1005E000F2E01DC0EFEFE7F959016A015E23550FF4
:1005F000EE08FE2C87019B01AC019E23990F660B30
:10060000762FCB013BD0CDB7DEB7EAE024C02F92E6
:100610003F924F925F926F927F928F929F92AF9292
:10062000BF92CF92DF92EF92FF920F931F93CF93DF
:10063000DF93CDB7DEB7CA1BDB0B0FB6F894DEBF76
:100640000FBECDBF09942A88398848885F846E849C
:100650007D848C849B84AA84B984C884DF80EE80E6
:10066000FD800C811B81AA81B981CE0FD11D0FB6EF
:10067000F894DEBF0FBECDBFED010895DF93CF9399
:100680009F92A0E49A2E0024D001E001F00116957B
:100690000795F794E794D794C794B794A79448F430
:1006A0001068A20FB31FC41FD51FE61FF71F081E37
:1006B000191E220F331F441F551F661F771F881FE7
:1006C000991F9A9421F79D01AE01BF01C001112429
:0C06D0009F90CF91DF910895F894FFCF28
:00000001FF
